:020000040800F2
:1000000000000220FD4500083D440008414400086E
:1000100045440008494400084D4400080000000021
:100020000000000000000000000000005144000833
:100030005544000800000000594400085D440008D1
:100040004D4600084D4600084D4600084D46000844
:100050004D4600084D4600084D4600084D46000834
:100060004D4600084D4600084D4600084D46000824
:100070004D4600084D4600084D4600084D46000814
:100080004D4600084D460008614400084D460008F2
:100090004D4600084D4600084D4600084D460008F4
:1000A0004D4600084D4600084D4600084D460008E4
:1000B0004D4600084D4600084D4600084D460008D4
:1000C0004D4600084D4600084D4600084D460008C4
:1000D0006D4400084D460008794400084D4600086C
:1000E0004D4600084D4600084D4600084D460008A4
:1000F0004D4600084D4600084D4600084D46000894
:100100004D4600084D4600084D4600084D46000883
:100110004D4600084D4600084D4600084D46000873
:10012000854400084D4600084D4600084D4600082D
:10013000914400084D4600084D4600084D46000811
:100140004D4600084D4600084D4600084D46000843
:100150004D4600084D4600084D4600084D46000833
:100160004D4600084D4600084D4600084D46000823
:100170004D4600084D4600084D46000800000000AE
:080180004D4600084D46000841
:1001900010B5054C237833B9044B13B10448AFF3C1
:1001A00000800123237010BD3802002000000000F1
:1001B000BC70000808B5034B1BB103490348AFF3FB
:1001C000008008BD000000003C020020BC70000858
:1001D00081F0004102E000BF83F0004330B54FEAF8
:1001E00041044FEA430594EA050F08BF90EA020F65
:1001F0001FBF54EA000C55EA020C7FEA645C7FEAF8
:10020000655C00F0E2804FEA5454D4EB5555B8BF1A
:100210006D420CDD2C4480EA020281EA030382EA8B
:10022000000083EA010180EA020281EA0303362D1D
:1002300088BF30BD11F0004F4FEA01314FF4801CF0
:100240004CEA113102D0404261EB410113F0004F02
:100250004FEA03334CEA133302D0524263EB4303B9
:1002600094EA050F00F0A780A4F10104D5F1200E57
:100270000DDB02FA0EFC22FA05F2801841F10001B2
:1002800003FA0EF2801843FA05F359410EE0A5F186
:1002900020050EF1200E012A03FA0EFC28BF4CF0B7
:1002A000020C43FA05F3C01851EBE37101F000456D
:1002B00007D54FF0000EDCF1000C7EEB00006EEB7A
:1002C0000101B1F5801F1BD3B1F5001F0CD3490804
:1002D0005FEA30004FEA3C0C04F101044FEA44525B
:1002E00012F5800F80F09A80BCF1004F08BF5FEAE2
:1002F000500C50F1000041EB045141EA050130BDC2
:100300005FEA4C0C404141EB010111F4801FA4F164
:100310000104E9D191F0000F04BF01460020B1FAB9
:1003200081F308BF2033A3F10B03B3F120020CDAF1
:100330000C3208DD02F1140CC2F10C0201FA0CF0CF
:1003400021FA02F10CE002F11402D8BFC2F1200C34
:1003500001FA02F120FA0CFCDCBF41EA0C019040EA
:10036000E41AA2BF01EB0451294330BD6FEA040433
:100370001F3C1CDA0C340EDC04F11404C4F120021E
:1003800020FA04F001FA02F340EA030021FA04F330
:1003900045EA030130BDC4F10C04C4F1200220FA87
:1003A00002F001FA04F340EA0300294630BD21FAC5
:1003B00004F0294630BD94F0000F83F4801306BF8B
:1003C00081F480110134013D4EE77FEA645C18BF7F
:1003D0007FEA655C29D094EA050F08BF90EA020F16
:1003E00005D054EA000C04BF1946104630BD91EA0E
:1003F000030F1EBF0021002030BD5FEA545C05D111
:100400004000494128BF41F0004130BD14F580044F
:100410003CBF01F5801130BD01F0004545F0FE41C3
:1004200041F470014FF0000030BD7FEA645C1ABFF8
:10043000194610467FEA655C1CBF0B46024650EA2F
:10044000013406BF52EA033591EA030F41F400215B
:1004500030BD00BF90F0000F04BF0021704730B5E1
:100460004FF4806404F132044FF000054FF00001B6
:1004700050E700BF90F0000F04BF0021704730B577
:100480004FF4806404F1320410F0004548BF40424C
:100490004FF000013EE700BF42004FEAE2014FEAA1
:1004A00031014FEA02701FBF12F07F4393F07F4F7C
:1004B00081F06051704732F07F4208BF704793F07F
:1004C0007F4F04BF41F40021704730B54FF4607492
:1004D00001F0004521F000411CE700BF50EA010295
:1004E00008BF704730B54FF000050AE050EA01023E
:1004F00008BF704730B511F0004502D5404261EBAE
:1005000041014FF4806404F132045FEA915C3FF4EE
:10051000D8AE4FF003025FEADC0C18BF03325FEA8B
:10052000DC0C18BF033202EBDC02C2F1200300FA3C
:1005300003FC20FA02F001FA03FE40EA0E0021FA61
:1005400002F11444BDE600BF70B54FF0FF0C4CF44F
:10055000E06C1CEA11541DBF1CEA135594EA0C0F01
:1005600095EA0C0F00F0DEF82C4481EA030621EA3C
:100570004C5123EA4C5350EA013518BF52EA033577
:1005800041F4801143F4801338D0A0FB02CE4FF029
:100590000005E1FB02E506F00042E0FB03E54FF059
:1005A0000006E1FB03569CF0000F18BF4EF0010E51
:1005B000A4F1FF04B6F5007F64F5407404D25FEA4D
:1005C0004E0E6D4146EB060642EAC62141EA555100
:1005D0004FEAC52040EA5E504FEACE2EB4F1FD0C42
:1005E00088BFBCF5E06F1ED8BEF1004F08BF5FEAC0
:1005F000500E50F1000041EB045170BD06F0004672
:1006000046EA010140EA020081EA0301B4EB5C041E
:10061000C2BFD4EB0C0541EA045170BD41F4801116
:100620004FF0000E013C00F3AB8014F1360FDEBF3B
:10063000002001F0004170BDC4F10004203C35DA17
:100640000C341BDC04F11404C4F1200500FA05F39A
:1006500020FA04F001FA05F240EA020001F000423B
:1006600021F0004110EBD37021FA04F642EB0601B1
:100670005EEA430E08BF20EAD37070BDC4F10C04DB
:10068000C4F1200500FA04F320FA05F001FA04F29F
:1006900040EA020001F0004110EBD37041F100018B
:1006A0005EEA430E08BF20EAD37070BDC4F1200596
:1006B00000FA05F24EEA020E20FA04F301FA05F2FE
:1006C00043EA020321FA04F001F0004121FA04F2A6
:1006D00020EA020000EBD3705EEA430E08BF20EA76
:1006E000D37070BD94F0000F0FD101F000464000B0
:1006F00041EB010111F4801F08BF013CF7D041EA32
:10070000060195F0000F18BF704703F00046520035
:1007100043EB030313F4801F08BF013DF7D043EA06
:100720000603704794EA0C0F0CEA135518BF95EABC
:100730000C0F0CD050EA410618BF52EA4306D1D143
:1007400081EA030101F000414FF0000070BD50EA62
:10075000410606BF1046194652EA430619D094EAEC
:100760000C0F02D150EA013613D195EA0C0F05D1D6
:1007700052EA03361CBF104619460AD181EA03012A
:1007800001F0004141F0FE4141F470014FF00000E2
:1007900070BD41F0FE4141F4780170BD70B54FF07D
:1007A000FF0C4CF4E06C1CEA11541DBF1CEA1355FD
:1007B00094EA0C0F95EA0C0F00F0A7F8A4EB0504DF
:1007C00081EA030E52EA03354FEA013100F08880D6
:1007D0004FEA03334FF0805545EA131343EA12639F
:1007E0004FEA022245EA111545EA10654FEA002654
:1007F0000EF000419D4208BF964244F1FD0404F50D
:10080000407402D25B084FEA3202B61A65EB030568
:100810005B084FEA32024FF480104FF4002CB6EB25
:10082000020E75EB030E22BFB61A754640EA0C00A5
:100830005B084FEA3202B6EB020E75EB030E22BFE5
:10084000B61A754640EA5C005B084FEA3202B6EB26
:10085000020E75EB030E22BFB61A754640EA9C00E5
:100860005B084FEA3202B6EB020E75EB030E22BFB5
:10087000B61A754640EADC0055EA060E18D04FEA73
:10088000051545EA16754FEA06164FEAC30343EA13
:1008900052734FEAC2025FEA1C1CC0D111F4801FE0
:1008A0000BD141EA00014FF000004FF0004CB6E7D9
:1008B00011F4801F04BF01430020B4F1FD0C88BF78
:1008C000BCF5E06F3FF6AFAEB5EB030C04BFB6EB83
:1008D000020C5FEA500C50F1000041EB045170BD76
:1008E0000EF0004E4EEA113114EB5C04C2BFD4EBA3
:1008F0000C0541EA045170BD41F480114FF0000E27
:10090000013C90E645EA060E8DE60CEA135594EAA2
:100910000C0F08BF95EA0C0F3FF43BAF94EA0C0FA5
:100920000AD150EA01347FF434AF95EA0C0F7FF41A
:1009300025AF104619462CE795EA0C0F06D152EA6E
:1009400003353FF4FDAE1046194622E750EA410652
:1009500018BF52EA43067FF4C5AE50EA41047FF463
:100960000DAF52EA43057FF4EBAE12E74FF0FF3CC8
:1009700006E000BF4FF0010C02E000BF4FF0010C99
:100980004DF804CD4FEA410C7FEA6C5C4FEA430C12
:1009900018BF7FEA6C5C1BD001B050EA410C0CBF61
:1009A00052EA430C91EA030F02BF90EA020F0020C3
:1009B000704710F1000F91EA030F58BF994208BF2A
:1009C00090422CBFD8176FEAE37040F001007047E7
:1009D0004FEA410C7FEA6C5C02D150EA013C07D13E
:1009E0004FEA430C7FEA6C5CD6D152EA033CD3D089
:1009F0005DF8040B704700BF8446104662468C4683
:100A00001946634600E000BF01B5FFF7B7FF0028B5
:100A100048BF10F1000F01BD4DF808EDFFF7F4FFDE
:100A20000CBF012000205DF808FB00BF4DF808ED69
:100A3000FFF7EAFF34BF012000205DF808FB00BF8C
:100A40004DF808EDFFF7E0FF94BF012000205DF8AE
:100A500008FB00BF4DF808EDFFF7CEFF94BF012063
:100A600000205DF808FB00BF4DF808EDFFF7C4FF5C
:100A700034BF012000205DF808FB00BF53B94AB91C
:100A8000002908BF00281CBF4FF0FF314FF0FF3096
:100A900000F072B9ADF1080C6DE904CE00F006F873
:100AA000DDF804E0DDE9022304B070472DE9F047EA
:100AB000089E04468846002B4BD18A42154667D9CA
:100AC000B2FA82F24AB1C2F1200701FA02F320FA27
:100AD00007F7954047EA030894404FEA154E230C68
:100AE000B8FBFEF71FFA85FC0EFB178843EA0843A4
:100AF00007FB0CF1994209D9EB1807F1FF3080F0A0
:100B00001B81994240F21881023F2B445B1AA4B228
:100B1000B3FBFEF00EFB103344EA034400FB0CFC75
:100B2000A44509D92C1900F1FF3380F00781A445B1
:100B300040F2048102382C4440EA0740A4EB0C0444
:100B400000271EB1D4400023C6E900433946BDE862
:100B5000F0878B4209D9002E00F0EB800027C6E910
:100B6000000138463946BDE8F087B3FA83F7002F15
:100B700047D18B4202D3824200F2FA80841A61EBA1
:100B8000030301209846002EE0D0C6E90048DDE7C7
:100B900002B9FFDEB2FA82F2002A40F08F80491BD0
:100BA0004FEA154E1FFA85F80127B1FBFEFC230C16
:100BB0000EFB1C1143EA014308FB0CF1994207D9D3
:100BC000EB180CF1FF3002D2994200F2CD8084463E
:100BD000591AA3B2B1FBFEF00EFB101443EA044411
:100BE00008FB00F8A04507D92C1900F1FF3302D209
:100BF000A04500F2B6801846A4EB080440EA0C4079
:100C00009FE7C7F1200CBB4022FA0CFE4EEA030E10
:100C100001FA07F420FA0CF521FA0CF34FEA1E480A
:100C20002543B3FBF8F92C0C08FB19331FFA8EFA95
:100C300044EA034309FB0AF49C4202FA07F200FA71
:100C400007F10BD91EEB030309F1FF3080F0878019
:100C50009C4240F28480A9F1020973441B1BADB28F
:100C6000B3FBF8F008FB103345EA034400FB0AFA33
:100C7000A24508D91EEB040400F1FF336BD2A24554
:100C800069D90238744440EA0940A0FB0289A4EB08
:100C90000A044C45C2464B4654D351D0002E69D06D
:100CA000B1EB0A0564EB030404FA0CFCFD40FC40C4
:100CB0004CEA0505C6E90054002747E7C2F12003C6
:100CC00020FA03F7954001FA02F021FA03F34FEA04
:100CD000154E3843010CB3FBFEF71FFA85F80EFBE7
:100CE000173341EA034107FB08F38B4204FA02F48D
:100CF00007D9691807F1FF3C2FD28B422DD9023F4B
:100D00002944CB1A81B2B3FBFEF00EFB103341EA4B
:100D1000034100FB08F38B4207D9691800F1FF3C3F
:100D200017D28B4215D902382944C91A40EA07471D
:100D30003BE73746304609E70746E7E61846FBE655
:100D40004145ABD2B8EB020A69EB0E0201381346FB
:100D5000A4E76046E9E7184695E76746D1E781468C
:100D60007CE702382C4447E7ACF1020C2B442FE718
:100D7000384608E73746E9E6704700BF034613F8F0
:100D8000012B002AFBD1181A01387047000000001F
:100D900001F0FF01102A2BDB10F0070F08D010F82C
:100DA000013B013A8B422DD010F0070F42B3F6D130
:100DB000F0B441EA012141EA014122F007047FF049
:100DC00000070023F0E80256083C85EA010586EAA0
:100DD000010685FA47F5A3FA87F586FA47F6A5FADC
:100DE00087F68EB9EED1F0BC01F0FF0102F00702E8
:100DF00032B110F8013B013A83EA010313B1F8D193
:100E00000020704701387047002D06BF3546033873
:100E1000073815F0010F07D1013015F4807F02BFAC
:100E2000013015F4C03F0130F0BC0138704700BFFD
:100E30004FEA410C7FEA6C5C02D150EA013C0AD1D6
:100E40004FEA430C7FEA6C5C02D152EA033C02D1C8
:100E50004FF0000070474FF0010070474FEA410229
:100E600012F5001215D211D56FF47873B3EB6252FC
:100E700012D94FEAC12343F0004343EA505311F023
:100E8000004F23FA02F018BF404270474FF00000B5
:100E9000704750EA013005D111F0004008BF6FF0F3
:100EA000004070474FF00000704700BFF0B44FF0B3
:100EB000C042144B00211026112512241320168045
:100EC00041F2B07719801580198014801980108044
:100ED000198040F23711168040F2391C1F802926F4
:100EE00015804FF4E8571980072540F273111480DC
:100EF000A3F800C010801F8016801880158019800C
:100F0000F0BC70470000026030B44FF0C0410B4BA2
:100F100000221025112412200D801A8013250C8028
:100F20001A802924088007201A800D801A800C80DE
:100F30001A8030BC08801A80704700BF0000026031
:100F40004FF4A070704700BFF02070474FF0C043CF
:100F5000074A00211980138882B09BB2ADF8043093
:100F600013889BB2ADF80630BDF8060002B070479A
:100F70000000026030B44FF0C042064BC1F1EF01F7
:100F80002025212489B2158019801480188030BC56
:100F9000704700BF0000026030B4084B4FF0C044FF
:100FA000C1F1EF0189B22025258019802125222158
:100FB0002580188021801A8030BC704700000260B4
:100FC00030B44FF0C042084B2024C1F1EF0114802F
:100FD0002125222489B219801580188014801A884E
:100FE000188830BC704700BF00000260F0B4C3F145
:100FF000F0034FF0C0450B4C5B1A013A9BB25026F0
:10100000C1F1EF0102442E8051272380522689B27C
:1010100092B253232F8021802E8020802B8022802B
:10102000F0BC704700000260F0B4C2F1EF024FF074
:10103000C0441B4D92B2202626802A8021262222DF
:1010400026802980228033B35A1E012A25D9002503
:10105000144F60F30F0560F31F4539465E08002208
:10106000013294B2B44241F8045BF9D323F0010297
:1010700092B29A4207D0511C89B28B4227F81200D3
:1010800001D927F81100074A05485B0032F8021B16
:101090000180023BFAD1F0BC7047024F0022EAE720
:1010A0000000026054020020F0B44FF0C044234D11
:1010B000032626804FF481572026C2F1EF022F80AD
:1010C00092B22680212722262A8027802980268006
:1010D00033B35A1E012A2DD90025194F60F30F058D
:1010E00060F31F4539465E080022013294B2B442D3
:1010F00041F8045BF9D323F0010292B2934207D086
:10110000511C89B28B4227F8120001D927F811002F
:101110000B4A0A485B0032F8021B0180023BFAD1FD
:101120004FF0C041054B032041F228020880F0BC7B
:101130001A807047024F0022E2E700BF0000026001
:10114000540200205388F0B4978855899489C1F1DE
:10115000EF0645EA044516494FF0C04443EA074309
:101160005B1B41F238074FF0030C2A442025A4F8FA
:1011700000C0B6B20F8033F0010325804FF0210785
:101180004FF022050E8027800880258005D013446B
:1011900032F8020B08809342FAD14FF0C041044B61
:1011A000032041F228020880F0BC1A80704700BF7B
:1011B00000000260F0B44FF0C045C1F1EF0603FB40
:1011C00002F30A49049C20222A80B6B22127222257
:1011D0005B000E802F8008802A8004D034F8022B18
:1011E0000A80023BFAD1F0BC704700BF00000260E9
:1011F0004FF0C043094A30B4EF2120241C80212540
:101200001180002422211D80148019804FF4963310
:10121000013B1080FCD130BC704700BF0000026071
:101220002DE9F84F4FF0C044824D00264FF00109E0
:101230004FF480724FF0020C26800423A5F8009032
:101240000327A4F800904FF4E06A2A8041F2180EB8
:10125000A4F800C04FF0080840F2022009210A2239
:101260004FF00C0CA5F800A027804FF00D0AA5F850
:1012700000E023804FF00F0E2E80A4F8008028801D
:101280004FF01008218011202E80122122802E8004
:101290001322A4F800C041F2B07C2E80A4F800A074
:1012A0002E8040F2371AA4F800E02E8040F2391E5A
:1012B000A4F800802E8020802E8021802E80228025
:1012C0002E80A4F80080A5F800C04FF4E85C2080D0
:1012D0004FF0200BA5F800A0292021804FF0210A13
:1012E000A5F800E022804FF0300EA5F800C04FF0C6
:1012F000310C208040F203612A803220A4F800B033
:1013000040F206222E80A4F800A02E80A4F800E06F
:101310002E80A4F800C04FF0350C298020803621A3
:101320002A80A4F800C02A804FF0370C40F2051242
:1013300021802B803821A4F800C02A8040F2014C83
:101340003922218040F2077EA5F800C03C2122808E
:1013500040F2026C3D22A5F800E02180A5F800C013
:1013600022802B8000F022FD502151222180EF238A
:101370002E804FF0520C2280532040F23F11602209
:101380002B80A4F800C02E804FF4274C20802980A9
:10139000612022806A218022A5F800C04FF0810ED2
:1013A00020804FF0820CA5F80090832021802E80B1
:1013B0008421228085222E80A4F800E02E804FF028
:1013C000900EA4F800C02E804FF0920C20802E804A
:1013D000932021802E80952122804FF488722E80C8
:1013E0004FF09709A4F800E0A5F800804FF0980EA0
:1013F000A4F800C02E8041F2280C208007202F8006
:1014000021802A8040F273112222A4F800902E80BD
:10141000A4F800E02E802780A5F800C02080298055
:10142000A4F800B02B80A4F800A02E802280BDE894
:10143000F88F00BF00000260F8B5144E144D154F30
:10144000B7604FF6FF730024C6E900436B68984706
:1014500049F22533984206D10F4A2B681560984708
:10146000B7600020F8BD49F228339842F4D00B4E03
:101470006B68984721460246304603F0D9FF4FF487
:101480007A70013400F092FCF2E700BF5C080020A3
:101490000000002050000020D40400202490000808
:1014A00008B5024B1B689B6A984708BDD40400200E
:1014B00008B5024B1B68DB6A984708BDD4040020BE
:1014C000014B1860704700BF5C080020014B98601A
:1014D000704700BF5C0800202DE9F047DFF864800A
:1014E000174ED8F800903168C8F8000000250FE0CA
:1014F00033689B6A984731680C6A8246AFB28CB1F8
:10150000034600213A46B8F80000A047316801358B
:10151000CB6A98478542EBD31FFA89F3C8F80030AD
:10152000BDE8F0870028F2D04B69B8F80020A0B2DF
:10153000013413B13946984731685445F4D1E6E790
:10154000D40400205C0800202DE9F047DFF84CA00F
:10155000DAF800502C6A44B10F4D1346A4460A46EF
:1015600001462888BDE8F047604792B11646884694
:101570000746DFF8249001E0DAF800506B69B9F80B
:1015800000203819414680B2013403B19847B44273
:10159000F2D1BDE8F08700BF5C080020D404002031
:1015A0002DE9F047DFF84CA0DAF800506C6A44B13E
:1015B0000F4D1346A4460A4601462888BDE8F04769
:1015C00060479AB1164688460746DFF8249001E046
:1015D000DAF800506B69B9F8002008EB04013846CE
:1015E00089B2013403B19847B442F1D1BDE8F08724
:1015F0005C080020D40400202DE9F047144C256835
:101600001646EF69D2F81220D6F816308046894681
:101610001FB192B29BB2B84725682B6B23B13246FB
:101620004946404698472568AB6A98472368DB6A75
:10163000054698472168CC693CB1002103462A46FB
:10164000A4460846BDE8F0476047BDE8F08700BF04
:10165000D40400202DE9F04F4C4B4D4F9C68B4F85A
:101660000480E5882668A7F816808BB02C4608F120
:10167000070E0194A2F1200C4FEAEE020292019AA9
:10168000CDE90801964602FB0CFC0299A7F81AE086
:10169000362215FB08F508FB04F41B35FA81029A83
:1016A0006D00C8EBC1001B34002144F3CF34FD8032
:1016B00002FB0CFC7546C2B23C8107923983B983A8
:1016C000002D57D0D3E90024C8EBC8735B00069304
:1016D000A8F111030EF100450493A8F10903381D88
:1016E000013D4FEA4807059308F1FF33664405FBC7
:1016F0000707CDF80C8089465FFA84FBC4F3072EF8
:101700005FFA82FAC2F3072C01259846049B072B47
:1017100006D873783178B2781B0243EA014111434D
:10172000059B072B02D8318849BA89B2B8F1070F57
:1017300028D83178079B039A43449C1A3A4605FA05
:1017400003F0084203F1FF3319BF82F836A082F894
:1017500037C082F836B082F837E0A34202F10202C5
:10176000EDD1069B1F44029B1E44019B09F1010918
:101770009945CBD1DDE90801064A0BB0BDE8F04F31
:10178000FFF73ABF039B002BD4D1EAE75C080020A7
:10179000D4040020D80400202DE9F047147807462F
:1017A00089462CB1511C8C1A11F8010B0028FAD172
:1017B000012BDFF874A02ED0022B24D0551E00245C
:1017C000DFF868800AE0E6B12A78FFF743FFDAF82D
:1017D00008309B8801341F44A4B2BFB2D8F800304F
:1017E00015F8016F9B6A003618BF01269847DAF892
:1017F00008309A8802FB14039BB29342494638464C
:10180000E1D2BDE8F087DAF808309B8813FB04F4D6
:101810003F1BBFB2D2E7DAF808309B8804FB03F421
:10182000A7EB5407BFB2C9E75C080020D40400202E
:101830002DE9F047DFF864A0DAF80830B3F8068045
:1018400018FB00F81FFA88F80B4613F8014B002C20
:10185000FBD14E1E2746DFF848900AE0E5B132780A
:10186000FFF7F8FEDAF808309B8801341F44A4B271
:10187000BFB2D9F8003016F8015F9B6A003518BF77
:1018800001259847DAF808309A8802FB14039BB2C6
:10189000934241463846E1D2BDE8F0875C0800201B
:1018A000D4040020014B1B689B681847D404002017
:1018B000704700BF2DE9F04F99B04822002106A8DB
:1018C00003F0AAF80026824FDFF810820DF1140908
:1018D000B3464FF47A7A00221021384600F092FF86
:1018E00090244FF47A7301220DF10F0140468DF8D8
:1018F0000F4001F075FA022305AA04A9CDF800A053
:101900004046ADF810B001F0E7FB9DF814309DF8AB
:10191000155001221021384605EB032500F072FF17
:1019200000221021384600F06DFFD0244FF47A7366
:1019300001220DF10E0140468DF80E4001F050FAE3
:10194000022305AA04A9CDF800A04046ADF810B0C6
:1019500001F0C2FB9DF814309DF815401021384667
:10196000C5F30B15012204EB032400F04BFF49F8EB
:10197000045FC4F30B14013620213846C9F8244013
:10198000F6B200F039FF00287FD1092EA3D1DDE99E
:101990000673DDE90B543B440A99099F089E0D9894
:1019A0004C4A39440D440E9920441E44084482FB9D
:1019B000064382FB0541A1EBE571A3EBE67382FBD5
:1019C00000425C1AA2EBE07284EAE470A0EBE470DF
:1019D0008C1AD51A002CB8BF6442002DB8BF6D42D6
:1019E000022803DD022C47DD022D51DCA04243DA40
:1019F000A84251DC0B4403EBD373374E5B103380AA
:101A0000DDE91151DDE90F37139A149C1698114442
:101A1000159A21441F44179C2E4B02443D442244F6
:101A200083FB050783FB0104A4EBE174A7EBE575D9
:101A300083FB0213291BA3EBE27381EAE172A2EBA1
:101A4000E172E11A581B0029B8BF49420028B8BF0B
:101A50004042022A03DD022925DD022818DC8A42E1
:101A600021DA82422ADC2C441B4804EBD474641033
:101A7000748019B0BDE8F08FAC420DDC8B1803EB1D
:101A8000D373154E5B103380BAE7092E3FF47FAF56
:101A9000002019B0BDE8F08F134403EBD3730E4E52
:101AA0005B103380ACE7814208DC23440A4803EB37
:101AB000D3735B10738019B0BDE8F08F2B440648D8
:101AC00003EBD3735B10738019B0BDE8F08F00BFD8
:101AD000000802405655555540080020700A002065
:101AE0002DE9F04F4B890D880C89B1F804808BB03B
:101AF0000746C8880095498801902E1BC51AAC4638
:101B00000CFB06F00293A8EB040CCB1A03FB1C00A1
:101B10000395069315460591CDF810C0FEF7AAFC73
:101B200000220023C5E90C01FEF776FF00287BD1D7
:101B3000B7F808B0B7F800A0039BB7F80490AAEB79
:101B40000B0202FB03F00992069AA9EB0B0303FBBD
:101B500012000893FEF78EFC049A089B07969446A1
:101B6000099A03FB06F3C5E9000102FB1C30FEF7EE
:101B700081FC009B019E0BFB03F20AFB142209FB74
:101B800004F306FB02F2059E0BFB183B009B06FBD1
:101B90000B2B0AFB08FA029A09FB13AAC5E90201FA
:101BA00002FB0AB0FEF766FCB7F80A90B7F802A08D
:101BB000039BFF88AAEB090BC5E9040106980BFB00
:101BC00003F2A7EB090303FB10200393FEF752FC7B
:101BD000079A039BC5E90601049903FB02F30BFB7B
:101BE0001130FEF747FC009A019E09FB02F30AFB45
:101BF000143306FB03F307FB04F4059E09FB1844AA
:101C00000AFB08F806FB043307FB1286029AC5E9B3
:101C1000080102FB0630FEF72DFC0123C5E90A018D
:101C200018460BB0BDE8F08F002318460BB0BDE896
:101C3000F08F00BF2DE9F8432E4FDFF8CC90DFF88E
:101C4000CC8000254046FFF741FC4FF6FF70FFF7C0
:101C500043FC1F20FFF734FCFFF722FC0123264A38
:101C60000021C0F34F00FFF797FD2448FFF72EFC3B
:101C7000FFF716FC0446FFF71BFC0123C0F34F01DE
:101C80001F4AC4F34F00FFF787FDC82000F08EF80D
:101C90007B197E5B5C88A6F10D00214680B20A228A
:101CA000FFF752FC301D214680B20A22FFF74CFCA0
:101CB000A4F10D0189B230460A22FFF771FC211D03
:101CC00089B230460A22FFF76BFCFFF7F3FD0028CC
:101CD000FBD0036849F8053004350C2DB2D1094A10
:101CE00009490448FFF7FCFE0020BDE8F843FFF770
:101CF000F3BB00BF3C0000204C90000850000020C7
:101D00006C90000878080020680800204800002037
:101D100070B50E4B0E4D1B682A7806464FF47A704C
:101D2000B0FBF2F0B3FBF0F000F0A8FA08B90F2E08
:101D300001D9012070BD0446024631464FF0FF3004
:101D400000F04CFA6E60204670BD00BF60000020BD
:101D50005800002008B50B4B1A6842F400721A6054
:101D60001A6842F480621A601A6842F480721A603B
:101D7000032000F021FA0020FFF7CAFF02F040FB29
:101D8000002008BD003C0240034A044B11681B7848
:101D90000B441360704700BFB008002058000020BB
:101DA000014B1868704700BFB008002038B50446E2
:101DB000FFF7F6FF631C054602D0044B1B781C445A
:101DC000FFF7EEFF401BA042FAD338BD58000020B9
:101DD000002800F08E80F8B5036C0446002B7ED0FE
:101DE000236CDB0604D50023012084F83C30F8BDC9
:101DF000226C4C4923684C4D22F4885222F0020296
:101E000042F0020222644A6822F440324A604A6880
:101E1000606802434A6058682169A768E66820F450
:101E2000807058605A6842EA01225A60586820F06F
:101E3000407058605968A06A39435960996821F424
:101E4000006199609A68A84242EA06029A6052D0FC
:101E50009968E56A21F0706199609A68104398600A
:101E6000996821F0405199609A682A439A6099686C
:101E7000A569206A21F0020199609A6842EA450248
:101E80009A605A6800283FD122F400625A60DA6AE8
:101E9000E569276B666922F47002DA62D86A013D4F
:101EA00040EA0550D862986820F4007098609968FC
:101EB00041EA47219960996821F4806199609A68A4
:101EC000002042EA86229A606064236C23F00303B8
:101ED00043F001032364002384F83C30F8BD4364DD
:101EE00080F83C3001F080FF236CDB063FF57BAFD0
:101EF0007EE7012070479A6822F070629A609A68C3
:101F000022F040529A60B2E742F40062616A5A607D
:101F10005A6822F460425A605A68013942EA4132F2
:101F20005A60B4E7002301400100000F704700BF72
:101F3000704700BF704700BF38B503681A6859681A
:101F40000446900701D58A0653D41A685968520787
:101F500001D50D061BD41A685968D00701D54A0669
:101F600006D41A685968900601D54A0169D438BD6B
:101F70001A68D507F5D5236C43F4803323642046D3
:101F8000FFF7D6FF23686FF001021A60E9E7226CC1
:101F9000D00603D4226C42F4005222649A6812F4F0
:101FA000401F1ED19A6B12F4401F02D09A6851054F
:101FB00017D45A68520514D49A6812F0405F10D1B1
:101FC000A26972B95A6822F080025A60236C23F425
:101FD00080532364236CDD0503D4236C43F0010399
:101FE0002364204600F0E6F823686FF00C021A60C4
:101FF000B1E7226CD50603D4226C42F4007222644D
:102000009A6812F0405F14D1A26992B9DA6A12F4A8
:10201000700F23D15A6822F020025A60236C23F4F7
:1020200080732364236CD90403D4236C43F001032D
:1020300023642046FFF77AFF23686FF012021A60CC
:1020400083E7626C6FF0200542F002026264204672
:102050001D60FFF76FFF23681D6038BD9A6850054B
:10206000E7D4D7E7F0B490F83C3082B00022012BDF
:10207000019200F095800D688A6803680124092D9B
:10208000AFB280F83C4029D81C6905EB45064FF0FB
:10209000070C0CFA06FC24EA0C041C611C6902FA09
:1020A00006F626431E614E68062E06EB86022AD8E7
:1020B000596B053A1F24944021EA04015963596B76
:1020C00007FA02F20A435A63374A93422DD000239B
:1020D00080F83C30184602B0F0BC704707EB47066A
:1020E000DC681E3E4FF0070C0CFA06FC24EA0C04D8
:1020F000DC60DC6802FA06F62643DE604E68062ED7
:1021000006EB8602D4D90C2E35D8A2F123041F2168
:102110001A6BA14022EA01021A63196B07FA04F252
:102120000A431A63204A9342D1D1122D31D0A5F12E
:102130001003012BCBD81D4A5368102D43F4000324
:102140005360C4D11A4B02F1467202F52E321B685D
:1021500002F28332A2FB03239B0C03EB83035B009D
:102160000193019B002BB2D0019B013B0193019B8A
:10217000002BF9D1ABE7A2F141011F24DA6A8C40B0
:1021800022EA0402DA62DC6A07FA01F22243DA6226
:102190009AE7D2F8043343F48003C2F8043396E795
:1021A000022002B0F0BC7047002001400023014033
:1021B00060000020704700BF074AD3684FF6FF0158
:1021C0000B40000243F0BF6300F4E06043F40033CF
:1021D0000343D360704700BF00ED00E0184BDB689D
:1021E000C3F3022330B4C3F10705042D03F1040443
:1021F00028BF0425062C19D9033B4FF0FF349C401F
:1022000022EA04044FF0FF32AA4021EA020101FA57
:1022100003F2224312010028D2B20ADB00F160402F
:1022200000F5614080F8002330BC7047002423464D
:10223000E8E7044B00F00F0003441A7630BC704707
:1022400000ED00E0FCEC00E000F01F01012340097C
:10225000024A8B4042F82030704700BF00E100E0A6
:102260004309203300F01F000122034902FA00F065
:1022700041F82300704700BF00E100E00138B0F1F1
:10228000807F0ED2084B10B4084C5860F02084F8C0
:1022900023000022072110469A6019605DF8044B64
:1022A00070470120704700BF10E000E000ED00E043
:1022B000F8B50446FFF774FD002C54D002222368C1
:1022C00084F835201A68002122F0010284F83410C5
:1022D00005461A6005E0FFF763FD401B05283BD863
:1022E00023681A68D107F6D4D4E90126D4E903514A
:1022F000324360691F682A43D4E906650A430243F2
:10230000216A354832432A430A43616A3840042926
:1023100042EA000229D01A605A6922F007021143EA
:10232000DAB22E485961103AA0FB021212092C4968
:1023300023F47F73895CE16523F00303032A88BFDC
:1023400004333F228A4001250021A36508469A6094
:10235000616584F83550F8BD032320226265184674
:1023600084F83530F8BD0120F8BDD4E90B010143F4
:102370000A43A56A1A605A6945F0040122F007026F
:1023800011430028CCD07EB1B6F5005F16D0022DE7
:1023900003D9032DC4D1C201C2D5012340226265F5
:1023A000184684F83530F8BD012D03D0F3D3022D43
:1023B000B6D1F0E7B0F1C07FB2D1EEE7032DAFD8D0
:1023C00001A252F825F000BF9B23000897230008C4
:1023D0009B230008B52300083F8010F0ABAAAAAAEF
:1023E0000490000890F83530022B03D08023436519
:1023F000012070470268052380F83530136823F008
:102400000103136000207047F0B583B00023876D8F
:102410000193C36D3D68654908229A402A420446EB
:102420000E6803D001680868400759D401229A4019
:102430002A4203D021684969080674D404229A40CC
:102440002A4203D021680968890766D410229A407D
:102450002A4203D02168086800074BD420229A4002
:102460002A4214D021680868C00610D5BA6094F8D2
:102470003520052A63D00B6813F4802F0B687ED0BB
:10248000190340F18980E36B0BB120469847636DD7
:1024900023B3636DDA071AD50523226884F8353033
:1024A0001368434923F00103A1FB06161360B60A23
:1024B00002E01368DB0704D5019B0133B3420193AB
:1024C000F7D90022012384F8342084F83530E36CF6
:1024D00023B1204603B0BDE8F040184703B0F0BD7B
:1024E000086820F004000860BA60626D42F00102E2
:1024F00062659BE7BA600A6812F4802F0A6818D1F7
:10250000D20503D40A6822F008020A60226C002A6D
:10251000A4D020469047E36DA0E7BA60626D42F018
:102520000402626592E7BA60626D42F0020262657F
:1025300084E71103EAD5A26C002AEAD18EE70A6883
:10254000206C22F016020A604A6922F080024A6179
:1025500038B30A6822F008020A603F22216D02FAAD
:1025600003F300200122BB6084F8340084F8352096
:102570000029B3D0204603B0BDE8F040084713F46B
:10258000807380D10A68012022F010020A6084F86A
:10259000343084F8350076E7636C002B7FF475AF38
:1025A00075E7A26C002AD4D1D7E700BF60000020F5
:1025B000B5814E1B2DE9F04FDFF830C2DFF83082D5
:1025C000D1F800E083B0002503E00135102D00F0C4
:1025D0009A800123AB400EEA0304A342F5D14E6872
:1025E00026F0100ABAF1020F00F090804FEA450978
:1025F0000322D0F800B002FA09F2D24306F0030732
:1026000002EA0B0B07FA09F70AF1FF3A47EA0B0750
:10261000BAF1010F076040F29F80C7688B683A40AB
:1026200003FA09F31343C360F300CED500230193EB
:10263000D8F8443043F48043C8F84430D8F84430E4
:1026400025F0030202F1804203F4804302F59C323C
:10265000019305F00307019BD2F80890BF000F23F8
:10266000BB4029EA030A5B4B984224D003F5806300
:10267000984200F08480584B984200F08780574B76
:10268000984200F08A80564B984200F08D80554B5E
:10269000984200F09080544B984200F09380DFF80D
:1026A000549148450CBF4FF007094FF0080909FA4B
:1026B00007F74AEA070AC2F808A0DCF80030E2434C
:1026C000F70354BF13402343CCF80030DCF8043048
:1026D000B70354BF13402343CCF80430DCF8083070
:1026E000F70254BF13402343CCF80830DCF80C3019
:1026F000B60205F1010554BF13402343102DCCF859
:102700000C307FF466AF03B0BDE8F08F4FEAD50917
:1027100000EB890905F00707D9F82020BF004FF02A
:102720000F0B0BFA07FB22EA0B0A0A69BA4042EACE
:102730000A02C9F820204FEA45090322D0F800A078
:1027400002FA09F2D24306F0030702EA0A0A07FA7C
:1027500009F747EA0A070760876807EA020ACF68AD
:1027600007FA09F747EA0A078760D0F804A0C6F31A
:1027700000172AEA0303AF401F4347604DE74FF0BD
:10278000010909FA07F74AEA070A94E74FF0020934
:1027900009FA07F74AEA070A8DE74FF0030909FA31
:1027A00007F74AEA070A86E74FF0040909FA07F72C
:1027B0004AEA070A7FE74FF0050909FA07F74AEAEC
:1027C000070A78E74FF0060909FA07F74AEA070A05
:1027D00071E700BF0000024000080240000C024008
:1027E000001002400014024000180240003C01406A
:1027F00000380240001C02400369194214BF012046
:102800000020704702B9090481617047002800F078
:1028100032812DE9F0410368DD0782B004462FD5EF
:10282000AC498A6802F00C02042A00F0EA808A6847
:1028300002F00C02082A00F0E0806368B3F5803FE4
:1028400000F0E980B3F5A02F00F05481A14D2A6873
:1028500022F480322A602A6822F480222A60002B27
:1028600040F0DE80FFF79CFA064605E0FFF798FA95
:10287000801B642800F2F2802B689B03F6D4236847
:102880009F0775D41A0715D56369002B00F0A58042
:10289000914B904D01221A60FFF782FA064605E03F
:1028A000FFF77EFA801B022800F2D8806B6F9B072F
:1028B000F6D5236858073BD5864A136C13F080532E
:1028C00040F0DB800193136C43F080531364136C6E
:1028D00003F080530193019B0126804D2A68D105A6
:1028E00040F1AC80A368012B00F0C980052B00F0FB
:1028F0000B81784D2A6F22F001022A672A6F22F09D
:1029000004022A67002B40F0BF80FFF749FA41F22A
:102910008837804606E0FFF743FAA0EB0800B8428C
:1029200000F29C802B6F9807F5D4002E40F0DC80DD
:10293000A269CAB1674DA96801F00C01082948D005
:10294000022A674A4FF00001116000F0E780FFF7AC
:1029500027FA2C46054604E0FFF722FA401B02281E
:102960007CD823689B01F7D4002002B0BDE8F08139
:10297000584A916811F00C0F24D0916801F00C01B5
:1029800008291CD0E368002B00F09280554B514D74
:1029900001221A60FFF704FA064604E0FFF700FA86
:1029A000801B02285AD82B689807F7D52B68226914
:1029B00023F0F80343EAC2032B60236862E75268FE
:1029C0005602DFD4434A126895074BD5E268012AC4
:1029D00048D0012002B0BDE8F0813F4A3D4D136070
:1029E000FFF7DEF9064604E0FFF7DAF9801B02285C
:1029F00034D86B6F9F07F7D45BE74A6850027FF5C6
:102A00001CAF344A126891037FF53AAF6268002A1E
:102A10007FF436AFDDE72F4A136843F48033136049
:102A2000FFF7BEF92B4D064604E0FFF7B9F9801B0E
:102A3000642813D82B689A03F7D520E72A6842F454
:102A400080722A60FFF7ACF907462B68DA053FF57C
:102A500049AFFFF7A5F9C01B0228F6D9032002B041
:102A6000BDE8F0811B4920690A6822F0F80242EAB9
:102A7000C0020A6006E70120704700262DE7154ACC
:102A8000136F43F001031367FFF78AF9114D804676
:102A900041F2883705E0FFF783F9A0EB0800B84260
:102AA000DCD82B6F9B07F6D5002E3FF441AF1BE01F
:102AB0000C4A084D1360FFF773F9064604E0FFF770
:102AC0006FF9801B0228C9D82B689907F7D42368AF
:102AD000D8E600BF00380240800E47420070004038
:102AE0006000474200004742234A136C23F08053A2
:102AF00013641DE7204B1A6842F480221A601A689A
:102B000042F480321A608BE71B4B1A6F42F00402CA
:102B10001A671A6F42F001021A67B5E7FFF740F92A
:102B2000064604E0FFF73CF9801B022896D82B6884
:102B30009901F7D4D4E90736D4E90902E16A0E4CC9
:102B4000334343EA8013520843EA0163013A0B49D5
:102B500043EA024301226B600A60FFF721F9054650
:102B600005E0FFF71DF9401B02283FF677AF236809
:102B70009A01F6D5F8E600BF0038024060004742EF
:102B8000174908B58B6803F00C03042B1BD0082BE6
:102B900017D14A684B6813F4800302F03F0214D146
:102BA00049681048C1F38811A1FB0001FDF766FFD9
:102BB0000B4B5B68C3F3014301335B00B0FBF3F0E5
:102BC00008BD084808BD084808BD4B680648C3F35F
:102BD0008813A3FB00010023FDF750FFE8E700BFC7
:102BE000003802400024F40000127A0060B1484A24
:102BF000136803F00F038B4208D2CBB21370136833
:102C000003F00F038B4201D00120704703682DE9C8
:102C1000F0419D0714D55C0704D53E4CA26842F4F0
:102C2000E052A2601A0704D53A4CA26842F460420E
:102C3000A260384C8568A26822F0F0022A43A260A4
:102C4000DF0704460D4622D54268012A56D0931E5E
:102C5000012B304B1B6858D9990725D52D4EB368E9
:102C600023F003031343B360FFF79AF841F2883768
:102C7000804605E0FFF794F8A0EB0800B84242D880
:102C8000B368626803F00C03B3EB820FF2D1204A01
:102C9000136803F00F03AB4209D9EBB2137013684A
:102CA00003F00F03AB4202D00120BDE8F08123689E
:102CB0005A0706D51749E0688A6822F4E0520243B1
:102CC0008A601B0711D4FFF75BFF124B12499B6808
:102CD000124AC3F30313CB5C20FA03F30020136002
:102CE000FFF716F80020BDE8F0810A4A21699368D1
:102CF00023F4604343EAC1039360E4E7054B1B6898
:102D00009E03ABD4D0E70320EDE79801A6D4CBE730
:102D1000003C0240003802400C9000086000002097
:102D2000044B054A9B680549C3F382230868D35CBA
:102D3000D8407047003802401C9000086000002016
:102D4000044B054A9B680549C3F342330868D35CCA
:102D5000D8407047003802401C90000860000020F6
:102D600000283BD090F85120002370B502F0FF01FD
:102D70000446836262B31846D4E90135D4E90321DD
:102D80002B4313436269E569266A0B431343A26927
:102D900021682B43022584F85150334302F4007517
:102DA0000E682B43120C656A02F0040203432A43A7
:102DB00026F040060E600B604A60CB69002223F4C7
:102DC00000630125CB611046626584F8515070BDE7
:102DD00080F8501001F0D4FAA06ACDE701207047C6
:102DE0002DE9F0410D4690F85010012982B072D0C3
:102DF0001E46012380F8503004461746FEF7D0FFE8
:102E0000804694F85100C0B2012809D00220012266
:102E1000002384F8512084F8503002B0BDE8F081DE
:102E2000002DF4D0002FF2D0A36820682563032280
:102E300084F85120B3F5004F4FF000026265A263A1
:102E4000A287C4E91022E786A786E287024603D15B
:102E5000036843F480430360036859063FD5E36881
:102E60006168B3F5006F00F0B080002951D115F80A
:102E7000013B0373E38E2068013B9BB2E38602466D
:102E8000711C31D0002E52D0E38E9BB273B1836897
:102E90009A0755D4FEF784FFA0EB080086424DD96F
:102EA000E38E20689BB20246002BF0D1771C51D1F3
:102EB00083689D07FCD583681A06FCD4A3682BB9E8
:102EC0000193C368019383680193019B606D003097
:102ED00018BF01209BE7022002B0BDE8F081036823
:102EE00043F040030360BAE7E38E9BB2002BDDD0D2
:102EF00083689B07F8D515F8013B0373E38E2068C0
:102F0000013B9BB2E386E38E9BB20246002BEFD1DE
:102F1000CCE7E38E9BB2012BB2D1A8E715F8013BB9
:102F20000373E38E2068013B9BB2E3860246E38E87
:102F30009BB2002BBAD083689F07EFD4032066E7CB
:102F400015F8013B0373E38E2068013B9BB2E386D7
:102F5000024699E78368990713D4002E00F08A800F
:102F6000FEF71EFFA0EB0800864240F28280206838
:102F700002469BE7FEF714FFA0EB0800864220689C
:102F800004D983681B0699D5002EF3D14368626883
:102F900023F0E003B2F5827F436000F09080A36AE3
:102FA000B3F5005F08D103684DF6FF72134003606C
:102FB000036843F400530360012084F85100636DFB
:102FC000202213436365626521E7002949D0E38E1F
:102FD0009BB2012B45D0771C16D0002E2FD0E38E4C
:102FE0009BB2002B3FF462AF8368990731D4FEF7A0
:102FF000D7FEA0EB08008642A0D9E38E20689BB2E2
:103000000246002BF0D151E7E38E9BB2002B3FF438
:103010004DAF83689B07F7D535F8023BC360E38E5D
:10302000013B9BB2E386E38E9BB2002BF1D13DE7DF
:1030300035F8023BC360E38E013B9BB2E386E38E2F
:103040009BB2002B3FF432AF83689B077FF576AFCE
:10305000EEE735F8023BC360E38E013B9BB2E386AB
:10306000BDE735F8023BC360E38E013B9BB2E386CC
:10307000B1E722685368616823F0E003B1F5827F0D
:10308000536010D0A36AB3F5005F08D113684DF602
:10309000FF710B401360136843F400531360012366
:1030A00084F851304AE7A368B3F5004F02D0B3F576
:1030B000806FE7D1136823F040031360E2E7A36851
:1030C000B3F5004F03D0B3F5806F7FF468AF0368AA
:1030D00023F04003036062E72DE9F0410E4690F8CB
:1030E0005010012982B079D004461F46012380F890
:1030F00050301546FEF754FE94F851106368C9B27B
:103100000129804611D0B3F5827F09D00220012227
:10311000002384F8512084F8503002B0BDE8F081DB
:10312000A268002AF2D10429F0D1002E5AD0002D35
:1031300058D0002F56D094F85120012A04BF052200
:1031400084F85120002122686165E787E7861068CE
:10315000A563C4E910114106A7872663A78603D497
:10316000116841F040011160E168B1F5006F60D075
:10317000002B00F0BE80E38E9BB2012B00F0B980E3
:10318000089B013340F0BD8022680121E38E9BB291
:103190001BB9E38F9BB2002B36D071B1E38E9BB28B
:1031A0005BB193689F0708D533781373E38E226869
:1031B000013B9BB20136E3860021E38F9BB2002BDB
:1031C000E4D09368D807E1D5D3682B70E38F2268E9
:1031D000013B9BB20135E3870121D7E7022002B012
:1031E000BDE8F081012092E7916888075CD4089AD5
:1031F000002A00F0F280FEF7D3FD089BA0EB080048
:10320000834240F2E9802268089901311346EBD1EC
:1032100093689D07FCD593681906FCD4A068002824
:1032200040F0D8800190D368019393680193019B8B
:103230006DE7002B00F09680E38E9BB2012B00F02F
:103240009180089B013340F095800121E38E9BB271
:103250001BB9E38F9BB2002BD6D069B1E38E9BB232
:1032600053B193689F0707D536F8023BD360E38ECE
:10327000013B9BB2E3860021E38F9BB2002BE5D09C
:103280009368D807E2D5D36825F8023BE38F013B6A
:103290009BB2E3870121D9E7FEF782FD089B2268F4
:1032A000A0EB0800834205D993681B06B6D5089B9E
:1032B000002BF1D15368616823F0E003B1F5827F00
:1032C000536000F0AF80A36AB3F5005F08D11368C4
:1032D0004DF6FF710B401360136843F40053136005
:1032E000012084F85100636D2022134363656265F9
:1032F0000DE716F8013B1373E38E013B9BB2E386A7
:103300003EE70127E38E9BB223B9E38F9BB2002BEC
:103310003FF479AF77B1E38E9BB25BB123689A68D3
:10332000910707D532781A73E38E013B9BB20136C1
:10333000E3860027E38F9BB25BB123689A68D207CC
:1033400007D5DB682B70E38F013B9BB20135E38728
:103350000127FEF725FD089BA0EB08008342D1D88A
:103360000320D4E636F8023BD360E38E013B9BB2E8
:10337000E38666E70127E38E9BB223B9E38F9BB216
:10338000002B3FF440AF77B1E38E9BB25BB1236873
:103390009A68910707D536F8022BDA60E38E013B75
:1033A0009BB2E3860027E38F9BB25BB123689A68E8
:1033B000D20707D5DB6825F8023BE38F013B9BB2C0
:1033C000E3870127FEF7ECFC089BA0EB0800834293
:1033D000D1D8C5E700209AE623685A68616822F0D0
:1033E000E002B1F5827F5A6010D0A26AB2F5005FA8
:1033F00008D11A684DF6FF710A401A601A6842F443
:1034000000521A60012384F85130A9E7A268B2F58E
:10341000004F02D0B2F5806FE7D11A6822F0400267
:103420001A60E2E7A368B3F5004F03D0B3F5806FED
:103430007FF449AF136823F04003136043E700BFF4
:10344000704700BF026830B55568916801F04104CB
:10345000012C85B003465DD0880707D52C0605D51D
:103460005A6C184605B0BDE83040104711F4B07FE3
:103470004ED0A8064CD54C060ED593F85100032823
:103480004FD0586D002440F0040058650094D06877
:10349000009090680090009888060CD5586D002424
:1034A00040F001005865029490680290106820F086
:1034B000400010600298C90508D5596D002041F000
:1034C000080159650390916803910399596DF9B109
:1034D0001C46536823F0E00353600121AB0784F8D6
:1034E000511012D05368E06C23F00303536018B1FD
:1034F000104B0365FEF776FFA06C48B10D4B0365DA
:1035000005B0BDE83040FEF76DBF2046FFF798FFDD
:1035100005B030BD6C069FD5036C05B0BDE83040EA
:10352000184700230193D368019393680193019B8B
:10353000EEE700BF3935000808B5836B0022DA8753
:103540001846DA86FFF77CFF08BD00BF38B390F855
:10355000493070B5154604460E4603F0FF02CBB164
:1035600004F10801206800F0C7FA3146A26820681B
:1035700000F0EEFA2946236BD4E9010200F008FBC3
:10358000A168226852F8213043F0010342F821304B
:10359000002070BD80F8482000F020FDE0E7012009
:1035A000704700BF002800F004812DE9F84390F82F
:1035B0003930044603F0FF02002B00F0F580236849
:1035C0002669242284F83920D86820F40050D4E9F0
:1035D0000225D8601969E06921F440512943196135
:1035E000D9686569324321F416412A4321F00C0160
:1035F00002430A43DA605A69A16922F440720A431D
:10360000B0F5004F5A61AA4A71D0934200F0D380BE
:1036100002F58062934200F0CE80FFF781FBA54F58
:10362000636800EB800000EB80009B00B0FBF3F3CD
:10363000A7FB03235B091D01FFF772FB666800EB24
:10364000800000EB8000B600B0FBF6F6FFF768FBE9
:10365000636800EB800000EB80009B00B0FBF3F39D
:10366000A7FB03235B094FF0640909FB13631B01EC
:103670003233A7FB03235B0903F0F006FFF750FB8F
:10368000626800EB800000EB80009300B0FBF3F871
:10369000FFF746FBD4E9002100EB80008B0000EB34
:1036A0008000B0FBF3F3A7FB03135B0909FB138353
:1036B0001B013233A7FB0313C3F3431333432B44E0
:1036C0009360136923F490431361536923F02A0331
:1036D0005361D3680025202143F40053D36028466A
:1036E000E56384F8391084F83A10BDE8F883934212
:1036F00000F09F8002F58062934200F09A80FFF70D
:103700000FFB6C4F636800EB800000EB80005B00F8
:10371000B0FBF3F3A7FB03235B091E01FFF700FBDC
:10372000656800EB800000EB80006D00B0FBF5F5F4
:10373000FFF7F6FA636800EB800000EB80005B00A7
:10374000B0FBF3F3A7FB03235B094FF0640909FB0C
:103750001353DB003233A7FB03231B0903F4F87573
:10376000FFF7DEFA626800EB800000EB8000530098
:10377000B0FBF3F8FFF7D4FAD4E9002100EB8000A6
:103780004B0000EB8000B0FBF3F3A7FB03135B09D6
:1037900009FB1383DB003233A7FB0313C3F342138C
:1037A00033442B4493608CE780F8382000F0E6FE29
:1037B00005E701207047FFF7C3FA3E4F636800EB4F
:1037C000800000EB80009B00B0FBF3F3A7FB03231A
:1037D0005B091D01FFF7B4FA666800EB800000EB9F
:1037E0008000B600B0FBF6F6FFF7AAFA636800EBBC
:1037F000800000EB80009B00B0FBF3F3A7FB0323EA
:103800004FF064095B0909FB13631B013233A7FB0B
:1038100003235B0903F0F006FFF792FA626800EBFE
:103820008000930000EB8000B0FBF3F8FFF788FA0C
:1038300030E7FFF785FA1F4F636800EB800000EB6D
:1038400080005B00B0FBF3F3A7FB03235B091E01C1
:10385000FFF776FA656800EB800000EB80006D00F2
:10386000B0FBF5F5FFF76CFA636800EB800000EB46
:1038700080005B00B0FBF3F3A7FB03234FF0640968
:103880005B0909FB1353DB003233A7FB03231B093E
:1038900003F4F875FFF754FA626800EB80005300F8
:1038A00000EB8000B0FBF3F8FFF74AFA64E700BFD3
:1038B000001001401F85EB51F0B50E4690F839100D
:1038C000202983B02DD1002E2ED0019262B31F4645
:1038D00090F83830012B044623D00023C363012124
:1038E000212380F8381080F83930FEF759FA019A10
:1038F000A284E28422680546E38C9BB2002B39D077
:10390000E08CA168013880B2B1F5805FE08419D005
:10391000781C3BD110680106FCD533785360013622
:10392000EAE7022003B0F0BD012003B0F0BD136848
:103930001B060CD4002F33D0FEF732FA401B87420F
:1039400022682DD3781CF2D110680106FCD533888B
:103950002169C3F3080353600029E0D10236CBE7A5
:1039600013685B060BD4DFB1FEF71AFA401B8742DF
:10397000226815D3781CF3D113685906FCD520238F
:10398000002084F8393084F83800CBE713681B0630
:10399000C3D42FB1FEF704FA401B87422268B7D286
:1039A000D36823F4D073D3605369202123F001033B
:1039B00000250320536184F8391084F8385084F8C6
:1039C0003A1003B0F0BD00BFF0B50E4690F83A10C3
:1039D000202983B032D1002E33D00192002A30D07A
:1039E0001F4690F83830012B044627D00023C363CC
:1039F0000121222380F8381080F83A30FEF7D0F900
:103A0000019AA2850546E285E08D80B2002859D052
:103A1000E28DA368013A92B2B3F5805FE2851DD0D2
:103A2000791C206828D102689206FCD52369721C93
:103A3000002B3DD1436833701646E5E7022003B002
:103A4000F0BD012003B0F0BD1A6890060CD4002F21
:103A50003FD0FEF7A5F9401B874239D3791C236874
:103A6000F2D11A689206FCD522695B6832BBC3F3B7
:103A7000080326F8023BC7E703689B06D6D42FB19C
:103A8000FEF78EF9401B8742CAD22068C36823F430
:103A9000D073C3604369202223F0010300214361F6
:103AA00084F83920032084F8381084F83A20C6E7D7
:103AB000436803F07F0333701646A5E7DBB226F8B0
:103AC000013BA1E7202384F8380084F83A30B6E7B8
:103AD0002368DA6822F4D072DA605A69202122F071
:103AE000010200255A61032084F8391084F8385007
:103AF00084F83A10A3E700BFD1E90132F0B4D1E96C
:103B00000365134333434C69CF6B2B43D1E90665FF
:103B100023433343D1E908642B433343D1E90A6596
:103B200023430C6833432B430E6B50F82450074952
:103B30003B43334329400B43082A08BF43F040036B
:103B400040F824300020F0BC704700BF8000F0FF38
:103B500070B400EB82028C690B68D1E90106234343
:103B600043EA0013D1E903504C69516843EA062344
:103B700043EA0543013843EA0053023C43EA046345
:103B800001F040410B430020536070BC704700BF00
:103B9000B3F5804F05D06FF0704340F8223000201D
:103BA000704770B40B688D694C682B43D1E902658E
:103BB00043EA0413064950F8224043EA062343EA45
:103BC000054321400B4340F8223070BC0020704771
:103BD0000000F0CF08B5FDF76BFEFEF72BF80020D4
:103BE00008BD00BF10B504462620FEF739FB236848
:103BF0001A68D968900601D58C060FD4100608D52E
:103C00000A0606D5074A12785A60DA6822F080025E
:103C1000DA602620BDE81040FEF716BB02485C685B
:103C20000470EBE7B5080020B408002008B50122B5
:103C30004FF0FF330248FFF7C7FE012008BD00BF69
:103C4000C80A002010B54FF0FF331446024892B264
:103C5000FFF732FE204610BDC80A00202DE9F041D2
:103C60001848194C194F1A4EDFF87080194D01F0A1
:103C700067FC19490220FDF7DBFD2268D36843F099
:103C80002003D3604FF4FA60FEF790F82268D368FF
:103C900043F08003D360304601F0CAFB3B6898686C
:103CA00000F08CFD00F082FEC3B21F2B194628469F
:103CB0001A4602D801F0BCFBE8E7404601F0B8FB29
:103CC000E4E700BF7C900008C80A002064000020E0
:103CD000A4900008B490000890900008D8900008C4
:103CE00038B5194D194C0A2001F0BAFB284601F0ED
:103CF00027FC204601F024FC154801F021FCFDF7CB
:103D00009BFBFDF7CFFD134801F01AFCFFF762FFA4
:103D10004FF6FF70FDF7E0FB0F48FDF7D7FB0020E3
:103D2000FDF7CEFB29460020FDF782FD214601204C
:103D3000FDF77EFD094801F003FCFFF78FFF0848FF
:103D400001F0FEFB002038BDFC9000081C9100082B
:103D50003491000850910008480000208491000828
:103D60009491000810B51D4B1D4A1E491A6084B07D
:103D70004FF4803202245A609962002201211846D1
:103D8000DC619A6000929A611A62DA62DA60CDE9C7
:103D900001220392196119635961FEF719F8D0B92C
:103DA00007240122002369460C480293CDE9004212
:103DB000FEF758F960B90622022369460748CDE9A3
:103DC0000023FEF74FF908B100F0B4FA04B010BDBB
:103DD00000F0B0FAEFE700F0ADFAE1E7B808002034
:103DE000002001400100000F70B50268274B88B029
:103DF00000249A42CDE90344CDE90544079401D05B
:103E000008B070BD03F58C3301945A6C204D42F418
:103E100080725A645A6C02F480720192019A029480
:103E20001A6B42F001021A631B6B03F00103029349
:103E3000C02303A90393064603231648029A04935A
:103E4000FEF7B8FB144828604FF480614FF400621D
:103E50004FF4005328466C60C5E90244C5E90744A5
:103E60006C62C5E90412AB61FEF722FA58B9002270
:103E7000B56311461220AE63FEF7B0F91220FEF7CB
:103E8000E3F908B070BD00F055FAF0E700200140FA
:103E900000090020000002407064024070B582B04A
:103EA00000222F490192086B2E4B2F4C5A6040F490
:103EB00080000863096BDA6101F4800101914FF41D
:103EC000806080214FF40076019D1A62C3E90B22C5
:103ED0004FF480551C6099604FF480440421032204
:103EE00018611846DE60C3E90554C3E90912FEF7FC
:103EF000DFF988BB1D4B1E4A1A6080214FF4007009
:103F00004FF400624FF4005504249960D8600321F7
:103F10005A61184600229D61C3E909415A601A613D
:103F2000C3E90722C3E90B22FEF7C2F908B100F08A
:103F300001FA002211463820FEF750F93820FEF72A
:103F400083F9002211463C20FEF748F93C2002B0DC
:103F5000BDE87040FEF778B900F0ECF9CAE700BFA1
:103F6000003802406009002010640240C0090020AF
:103F700028640240F0B5174B174A5A6089B04FF0D9
:103F8000204400214FF480551C6010249D62C3E939
:103F900002111961C3E90611C3E90811C3E90B1144
:103FA000C3E90D11596418460A4602270491079186
:103FB0000F265C610D25112301A905940197CDE918
:103FC00002650693FFF7C2FA08B100F0B3F909B031
:103FD000F0BD00BF200A0020040100A0F0B5164B80
:103FE0001C6887B00CB107B0F0BD0121134A0094E2
:103FF0001960936B12480B439363936B03940B40CC
:10400000009301A94FF68073022703260C25009A1E
:10401000CDE90137CDE90465FEF7CCFA4CF6B37370
:1040200001A908480297CDE9046503940193FEF7BE
:10403000C1FA07B0F0BD00BF4408002000380240BC
:1040400000100240000C02402DE9F04F00248FB018
:10405000CDE90944CDE90B447F4B03940D941A6BD1
:10406000DFF804927D4EDFF80482DFF804A242F00C
:1040700010021A631A6B02F010020392039A04945E
:104080001A6B42F004021A631A6B02F004020492E3
:10409000049A05941A6B42F080021A631A6B02F0BC
:1040A00080020592059A06941A6B42F001021A6387
:1040B0001A6B02F001020692069A07941A6B42F0FC
:1040C00002021A631A6B02F002020792079A08941E
:1040D0001A6B42F008021A631B6B03F00803089383
:1040E000224648460821089BFEF78CFB01223046F9
:1040F0001146FEF787FB224630461021FEF782FB71
:10410000224657484FF44051FEF77CFB01254FF003
:10411000080B09A94846CDE909B5CDE90B44FEF7DE
:1041200049FA09A93046112302270993CDE90A5417
:104130000C94FEF73FFA052309A93046CDF824B0C8
:104140000D930193CDE90B440A97FEF733FA454BE3
:104150000A9309A9404609950B94FEF72BFA102201
:1041600009A9404609924FF0200BCDE90A45FEF718
:1041700021FA019B0D9309A94046CDF824B0CDE961
:104180000A740C94FEF716FA09A93046CDE909B471
:104190000B944FF0040BFEF70DFA09A95046CDE938
:1041A0000A44CDF824B0FEF705FA4FF48062019B73
:1041B000099209A950460D93CDE90A740C94FEF7B3
:1041C000F9F909A94FF4405325480993CDE90A5458
:1041D0000C94FEF7EFF909A93046C0230993CDE905
:1041E0000A45FEF7E7F909A940464FF40073099321
:1041F000CDE90A44FEF7DEF9404609A94FF4E05242
:104200000A2309920D93CDE90A740C94FEF7D2F9B2
:10421000304609A94FF4A052062309920D93CDE927
:104220000A740C94FEF7C6F94FF41072504609A9AF
:104230001223CDE90923CDF834B0CDE90B54FEF7B4
:10424000B9F9084B0B9409A94846CDE90973FEF763
:10425000B1F90FB0BDE8F08F00380240000802400D
:10426000000C02400000121000100240000002404A
:104270000004024070B5002494B0CDE90A44CDE9B1
:104280000C44CDE90444CDE906441E4A019403944C
:10429000116C1D4B41F080511164126C02F0805280
:1042A0000192019A02941A6842F480421A601B68D3
:1042B00003F48043029301214FF480324FF48003D2
:1042C000022502980891099208214FF4A8720F93D1
:1042D00008A807231091119213930E9512950F269B
:1042E000FEF794FA4FF4A0524FF4805303A805212F
:1042F000049505940396CDE90623FEF777FC14B0E8
:1043000070BD00BF003802400070004008B5FDF7E6
:1043100021FDFFF7AFFFFFF797FEFFF7BFFD00F0AE
:1043200011F9FFF71FFD00F007F8FFF723FEFFF775
:10433000D7FCFEE7704700BF38B50F4B0F4A1A6035
:104340004FF482724FF4007520240A215A601846F7
:104350000022C3E90654D962C3E90222C3E9042258
:10436000C3E908229A62FEF7FBFC00B938BDBDE83C
:104370003840FFF7DFBF00BF700A00200038004060
:1043800070B502681C4B88B000249A42CDE9034402
:10439000CDE90544079401D008B070BD03F50033A2
:1043A00001941A6C154842F480421A641A6C02F4A3
:1043B00080420192019A02941A6B42F002021A633F
:1043C0001B6B03F0020302934FF4604303A9032223
:1043D000039302250523CDE90623029E0495FEF7EB
:1043E000E9F8224621462420FDF7F8FE2420FDF7B7
:1043F0002BFF08B070BD00BF003800400004024031
:1044000082B00D4B002100915A6C42F480425A64F4
:104410005A6C02F480420092009A01911A6C42F0A8
:1044200080521A641B6C03F080530193019B072098
:1044300002B0FDF7C1BE00BF00380240704700BFA8
:10444000FEE700BFFEE700BFFEE700BFFEE700BFDC
:10445000704700BF704700BF704700BFFDF794BCB6
:104460000148FDF769BD00BFB80800200148FEF70C
:10447000E9BF00BF700A00200148FFF7B3BB00BFCF
:10448000C80A00200148FDF7BFBF00BF6009002037
:104490000148FDF7B9BF00BF000900200C4A08B56C
:1044A000136833B118446946884208D8106018462A
:1044B00008BD084B1360184469468842F6D900F0DD
:1044C000C7F80C2303604FF0FF33184608BD00BF48
:1044D0004C080020100B00204FF0FF30704700BF49
:1044E0004FF400534B600020704700BF012070471D
:1044F000002070471049114BD1F8882042F4700217
:1045000010B4C1F888201A680D4C002042F0010256
:104510001A6098601A6822F0847222F480321A605D
:104520005C601A684FF0006422F480221A60D86040
:104530008C605DF8044B704700ED00E000380240ED
:10454000103000240B4B0C4A10B50C211A604FF4AC
:10455000E134002218465C605961C3E902221A6105
:10456000C3E90622FFF71EF800B910BDBDE81040F0
:10457000FFF7E0BEC80A00200044004070B50268A2
:104580001C4B88B000249A42CDE90344CDE9054490
:10459000079401D008B070BD03F5FA3301941A6C8A
:1045A000154842F400321A641A6C02F40032019287
:1045B000019A02941A6B42F001021A631B6B03F01A
:1045C000010302930C22022303A903920493032202
:1045D000072301250793CDE90552029EFDF7EAFF67
:1045E000224621462620FDF7F9FD2620FDF72CFE68
:1045F00008B070BD0044004000000240DFF834D035
:10460000002103E00C4B5B58435004310B480C4B2A
:1046100042189A42F6D30B4A02E0002342F8043BC8
:10462000094B9A42F9D3FFF765FF00F0D1F9FFF784
:104630006DFE70470000022070940008000000200A
:1046400034020020380200200C0B0020FEE700009E
:10465000014B1868704700BF640000208A892DE96B
:10466000F041054610070C4658D44B68002B05DC7A
:104670000B6C002B02DC0020BDE8F081E66A002E06
:10468000F9D0002312F480522F68216A2B6032D0B7
:10469000606DA3895A0705D56368C01A636B0BB1B7
:1046A000236CC01A00230246E66A216A2846B047F6
:1046B000431CA38906D129681D2948D8294ACA4024
:1046C000D60744D500226260D9042269226004D54D
:1046D000421C01D12B6803B96065616B2F60002912
:1046E000C9D004F14403994202D0284600F09CF955
:1046F00000206063C0E701232846B047411CC8D1B1
:104700002B68002BC5D01D2B01D0162B01D12F609B
:10471000B1E7A38943F04003A381ADE70F69002F00
:10472000A9D093070E6808BF4B690F6018BF00231C
:10473000A6EB07088B60B8F1000F9CDD43463A46B4
:10474000216AA66A2846B047002806DCA38943F000
:104750004003A3814FF0FF308EE70744A8EB000829
:10476000E9E700BF0100402038B50B6905460C465B
:10477000DBB118B183690BB900F072F80C4B9C42A5
:1047800009D16C68B4F90C307BB121462846BDE8EC
:104790003840FFF763BF074B9C4201D1AC68F1E79B
:1047A000054B9C4208BFEC68ECE7002038BD00BF19
:1047B000BC910008DC9100089C910008014620B9DA
:1047C000044B0549186800F0D3B8044B1868FFF78C
:1047D000CBBF00BFFC9100086947000864000020BF
:1047E000002310B50446C0E900338360818143662D
:1047F000C281C0E904338361194608225C3000F0AD
:104800000BF9054B6362054BA362054BE362054B55
:104810002462236310BD00BF715500089355000842
:10482000CB550008EF550008014900F0A1B800BFC2
:104830006947000870B54A1E682555430E4605F1C4
:10484000740100F03FF9044640B10021C0E90016B0
:104850000C30A06005F1680200F0DEF8204670BD63
:10486000836910B5044633BBC0E912330365124BAC
:10487000124A1B688262984204BF0123836100F0E0
:104880001FF86060204600F01BF8A060204600F092
:1048900017F80022E06004216068FFF7A1FF012201
:1048A0000921A068FFF79CFF02221221E068FFF7B0
:1048B00097FF0123A36110BDFC910008294800085F
:1048C000F8B51B4B1E68B369074613B93046FFF7AE
:1048D000C7FF4836D6E90134013B03D5336833B10D
:1048E0003668F7E7B4F90C506DB16834F4E7042189
:1048F0003846FFF79FFF30600028F1D10C233B6062
:1049000004462046F8BD0B4B6566C4E90055A5601A
:10491000C4E90335C4E905550822294604F15C00C1
:1049200000F07AF8C4E90D55C4E91255E9E700BF73
:10493000FC9100080100FFFF2DE9F041884600F1DD
:104940004804002614B93046BDE8F081D4E9017569
:10495000013F01D52468F5E7AB89012B06D9B5F9EC
:104960000E30013302D02846C04706436835EFE7D2
:104970002DE9F8438046894600F14804002614B921
:104980003046BDE8F883D4E90175013F01D52468BC
:10499000F5E7AB89012B07D9B5F90E30013303D008
:1049A00029464046C84706436835EEE7074B10B531
:1049B0001C6824B1A36913B92046FFF751FF616851
:1049C0002046BDE8104001F03FBD00BF640000205C
:1049D00070B50D4E0D4CA41BA4100025A54209D1A5
:1049E0000B4E0C4C02F06AFBA41BA4100025A54240
:1049F00005D170BD56F8253098470135EEE756F8D9
:104A0000253098470135F2E768940008689400085B
:104A1000689400086C94000802440346934200D155
:104A2000704703F8011BF9E738B50546002945D062
:104A300051F8043C0C1F002BB8BFE41801F0C7FD6F
:104A40001F4A1368104633B9636014602846BDE8F6
:104A5000384001F0BDBDA3420CD9216862189342D1
:104A600004BF1A685B68636004BF52182260046068
:104A7000ECE713465A680AB1A242FAD919685818E5
:104A8000A0420BD120680144581882421960DDD140
:104A9000106852685A6001441960D7E702D90C23A4
:104AA0002B60D3E7206821188A4204BF116852683E
:104AB000626004BF091821605C60C7E738BD00BFB1
:104AC0005408002070B5CD1C25F0030508350C2DC9
:104AD00038BF0C25002D064601DBA94203D90C2363
:104AE0003360002070BD01F072FD214A1468214638
:104AF00091B9204C23681BB9304600F029FD206095
:104B00002946304600F024FD431C24D10C23336099
:104B1000304601F05DFDE4E70B685B1B18D40B2BFE
:104B20000FD90B60CD50CC18304601F051FD04F187
:104B30000B00231D20F00700C31AD3D05A42E250C5
:104B4000D0E78C424B6816BF636013600C46EBE7FE
:104B50000C464968CCE7C41C24F00304A04205D0ED
:104B6000211A304600F0F4FC0130CFD02560DBE79D
:104B700054080020580800202DE9FF4755EC104B41
:104B80000D9FDDF830A0002D0E4691461946B8BFA6
:104B900022462B4627F02007BBBF05F100431D46E8
:104BA00000232D23B8BF1446462F0B7004D0452F89
:104BB00000D10136022100E0032103AB019302ABD7
:104BC00000933246534645EC104B00F085FE472FCC
:104BD000804602D119F0010F26D0462F08EB0609B6
:104BE00011D198F80030302B0AD100220023204642
:104BF0002946FBF711FF18B9C6F10106CAF8006093
:104C0000DAF8003099440022002320462946FBF7B9
:104C100003FF38B93022039B4B4505D2591C039141
:104C20001A70F8E7CDF80C90039B0E9AA3EB0803DB
:104C30004046136004B0BDE8F087F7B5002904468C
:104C4000BABF49422D232B23092904F8022B4370B4
:104C500020DD0DF107031F460A2691FBF6F506FB42
:104C600015113031092D03F8011C03F1FF322946DB
:104C700009DC3031023B02F8011CBB42224604D35E
:104C8000101A03B0F0BD1346E7E713F8012B04F840
:104C9000012BF2E7302319448370021DC170EFE746
:104CA0002DE9F04F8DB00C46DDF8588016461F46B2
:104CB000054601F0F5FB036804931846FCF75EF81F
:104CC00000230A93D8F800300590073323F0070338
:104CD00003F1080294F818A0D4F800B0C8F8002036
:104CE000D3E90023C4E91223D4E9128929F000434F
:104CF0000793CDF818804FF0FF32A74BDDE906018E
:104D0000FCF796F870BB4FF0FF32A34BDDE90601CC
:104D1000FBF796FE30BB0022002340464946FBF7D6
:104D200085FE10B12D2384F843309C4A9C4BBAF188
:104D3000470F8CBF9046984603232BF00402236153
:104D400022604FF00009009733460BAA21462846FF
:104D500000F0E6F9013040F08D804FF0FF300DB0EB
:104D6000BDE8F08F42464B4640464946FCF760F8A6
:104D700010B18C4A8C4BDAE761684B1C4BF48062B3
:104D80000AA83ED1062363600023CDE9020309ABE4
:104D9000009349EC108B0DF123032260CDF804A0A1
:104DA00061682846FFF7E8FE0AF0DF03472B8046DC
:104DB00009D1099BD81C02DB6268934247DDAAF146
:104DC000020A5FFA8AFABAF1650F099924D8013903
:104DD000524604F150000991FFF72FFF0A9A131869
:104DE000012A8146236102DC2268D10701D5013303
:104DF00023619DF82330002BA5D02D2384F8433068
:104E0000A1E7BAF1670F00F07781BAF1470FBBD184
:104E10000029B9D10123B6E7BAF1660F19D10029EB
:104E200063680CDD216113B92268D20702D5013312
:104E30000B442361099BA3654FF00009D9E713B91F
:104E40002268D00701D50233F3E70123F1E74FF0E1
:104E5000670ADDE90932934205DB22682361D10745
:104E6000E8D50133E5E7002BD4BFC3F102030123EA
:104E70001344DEE723685A0507D4236942463146C6
:104E80002846B84701302BD167E7BAF1650F40F2E9
:104E9000DC8000220023D4E91201FBF7BDFD0028CD
:104EA00033D00123414A31462846B84701303FF408
:104EB00054AFDDE909239A4202DB2368D8070FD5F6
:104EC000DDE9042331462846B84701303FF445AFB9
:104ED0004FF0000804F11A090A9B013B434509DC25
:104EE00023689B0700F10381E0680B9B9842B8BFE1
:104EF000184634E701234A4631462846B847013070
:104F00003FF42BAF08F10108E6E7099B002B2BDCEF
:104F10000123264A31462846B84701303FF41DAFE9
:104F2000099B23B90A9B13B92368D907D8D5DDE9B2
:104F3000042331462846B84701303FF40EAF4FF006
:104F4000000904F11A0A099B5B424B4501DC0A9BEC
:104F500094E70123524631462846B84701303FF4D2
:104F6000FCAE09F10109EEE70A9AA36D9A42A8BFC7
:104F70001A46002A914607DD134631464246284626
:104F8000B84701303FF4E9AE04F11A034FF0000BCB
:104F900029EAE979069315E0FFFFEF7F0492000804
:104FA000009200080C920008089200081092000875
:104FB0000123069A31462846B84701303FF4CDAE6A
:104FC0000BF1010BD4F858A0AAEB09035B45EFDC09
:104FD000DDE909239A42D04415DB2368DA0712D4AD
:104FE0000A9B0999A3EB0A02A3EB010A9245A8BF09
:104FF0009246BAF1000F0EDC4FF000082AEAEA7A76
:1050000004F11A0919E0DDE9042331462846B847BE
:105010000130E5D1A1E65346424631462846B8471D
:105020000130E9D199E601234A4631462846B8477E
:1050300001303FF492AE08F10108DDE909239B1A23
:10504000A3EB0A034345EEDC4AE70A9A012A01DC96
:10505000DB073AD50123424631462846B84701309E
:105060003FF47BAEDDE9042331462846B8470130E2
:1050700008F101083FF471AE0A9B002203F1FF3AE8
:10508000D4E912010023FBF7C7FCC8B953464246D6
:1050900031462846B84701300ED15EE6012352461C
:1050A00031462846B84701303FF457AE08F10108B1
:1050B0000A9B013B4345F1DC4B4604F15002DEE61E
:1050C0004FF0000804F11A0AF2E70123DFE7012399
:1050D0004A4631462846B84701303FF43EAE08F113
:1050E0000108E3680B9A9B1A4345F0DCFCE64FF09D
:1050F000000804F11909F4E700293FF48BAE0023FE
:10510000CDE9020309AB009349EC108B2260CDF886
:1051100004A00DF123032846FFF72EFD804648E644
:105120002DE9F04791461F468A680B69DDF820801B
:105130009342B8BF1346C9F8003091F843200646A1
:105140000C4612B10133C9F800302368990642BFFA
:10515000D9F800300233C9F80030256815F006058B
:1051600007D104F1190AE368D9F800209B1AAB4271
:1051700028DC94F843302268003318BF01239206DC
:105180002DD404F1430239463046C047013020D0C7
:105190002368E568D9F8002003F00603042B08BF54
:1051A000AD1AA36822690CBF25EAE5750025934274
:1051B000C4BF9B1AED184FF000091A344D451AD19F
:1051C000002008E00123524639463046C0470130EE
:1051D00003D14FF0FF30BDE8F0870135C3E7E11898
:1051E0005A1C302081F84300224494F8451082F87C
:1051F00043100233C5E70123224639463046C047F3
:105200000130E6D009F10109D8E700002DE9F043AB
:1052100001F1430C0C46097E85B06E2917460646FF
:1052200098460C9A00F0B38022D8632936D00AD869
:10523000002900F0B980582900F0838004F142056C
:1052400084F8421032E0642901D06929F6D120683F
:105250001368050603F104012AD51B681160002BB1
:1052600003DA2D225B4284F843206F480A2239E09A
:10527000732900F09D8008D86F2920D07029DDD1D6
:10528000236843F02003236003E0752917D07829B1
:10529000D4D1782384F84530644855E01368191D4B
:1052A0001B68116004F1420584F8423001238CE050
:1052B0001B68116010F0400F18BF1BB2CFE71368D6
:1052C0002568181D1060280601D51B6802E06806D5
:1052D000FBD51B8854486F2914BF0A2208220021DD
:1052E00084F843106568A560002DC0F295802168A0
:1052F00021F004012160002B3DD1002D40F08E8073
:105300006546082A0BD12368DB0708D52369626844
:105310009A42DEBF302305F8013C05F1FF35ACEBC6
:1053200005032361CDF800803B4603AA21463046A1
:10533000FFF7F6FE01304DD14FF0FF3005B0BDE86C
:10534000F083394884F84510136821681D1D1B68D7
:1053500015600A060BD5CA0744BF41F02001216041
:105360001BB9226822F0200222601022B7E74D0606
:1053700048BF9BB2EFE76546B3FBF2F102FB113386
:10538000C35C05F8013D0B460029F5D1B9E7136868
:1053900025686169181D106028061B6801D5196011
:1053A00002E06A06FBD51980002323616546B9E750
:1053B0001368191D11601D68626800212846FBF7FB
:1053C000E7FC08B1401B606063682361002384F838
:1053D0004330A7E723692A4639463046C0470130A3
:1053E000AAD023689B0713D4E068039B9842B8BFF8
:1053F0001846A3E701234A4639463046C0470130E4
:105400009AD00135E368039A9B1AAB42F2DCEBE7D2
:10541000002504F11909F5E7002BACD1037884F8D5
:10542000423004F142056CE7129200082392000812
:105430000FB40A4B13B51C6824B1A36913B92046F5
:10544000FFF70EFA05AB049AA1680193204601F01C
:10545000D3FB02B0BDE8104004B0704764000020E8
:1054600038B5084B1C68054624B1A36913B920461A
:10547000FFF7F6F9A26829462046BDE8384001F05A
:10548000D1BC00BF6400002070B50E46054618B1BF
:1054900083690BB9FFF7E4F9AB69AC6813B9284627
:1054A000FFF7DEF9234B9C4217D16C68A3891B07D9
:1054B0001DD52369DBB1013EA36816F8011F013B2E
:1054C000A360E9B9002B2EDA22460A21284600F013
:1054D00093F8013011D00A2011E0174B9C4201D102
:1054E000AC68E3E7154B9C4208BFEC68DEE7214659
:1054F000284600F0E5F80028DDD04FF0FF3070BD01
:10550000002B04DAA2699A4206DC0A2904D0236837
:105510005A1C22601970CFE72246284600F06CF82A
:105520000130C9D1E9E723680A205A1C22601870AB
:10553000E5E700BFBC910008DC9100089C910008E1
:10554000024B01461868FFF79FBF00BF64000020B0
:1055500038B5064C0023054608462360FEF79EFF3B
:10556000431C02D1236803B12B6038BD080B002017
:1055700010B50C46B1F90E1001F08AFC0028ABBF43
:10558000636DA3891B1823F48053ACBF6365A381AB
:1055900010BD2DE9F0411F468B89DB0505460C4601
:1055A000164605D502230022B1F90E1000F086FF41
:1055B000A389B4F90E1023F48053A38132463B46ED
:1055C0002846BDE8F04100F069B810B50C46B1F9C5
:1055D0000E1000F073FF431CA38915BF606523F410
:1055E000805343F48053A38118BFA38110BDB1F948
:1055F0000E1000F0D3B80000F8B50E46144605466C
:1056000018B183690BB9FFF72BF9214B9C422AD1C2
:105610006C68A369A360A3891A072ED5236963B3B5
:1056200023692068C01A6369F6B28342374604DCF6
:1056300021462846FFF798F828BBA368013BA360E2
:1056400023685A1C22601E7063690130834204D0B3
:10565000A389DB0719D50A2E17D121462846FFF763
:1056600083F890B10FE00B4B9C4201D1AC68D0E7BE
:10567000094B9C4208BFEC68CBE72146284600F066
:105680001FF80028CCD04FF0FF373846F8BD00BFD8
:10569000BC910008DC9100089C91000838B5074CCB
:1056A000054608461146002222601A46FEF7CAFA4D
:1056B000431C02D1236803B12B6038BD080B0020C6
:1056C000324B70B51D6806460C4625B1AB6913B95F
:1056D0002846FFF7C5F82E4B9C420FD16C68B4F9F1
:1056E0000C309AB215072CD4D00611D4092232609E
:1056F00043F04003A3814FF0FF303EE0254B9C4236
:1057000001D1AC68EBE7244B9C4208BFEC68E6E7AC
:10571000510712D5616B41B104F14403994202D0A3
:105720003046FFF781F900236363A38923F0240344
:10573000A3810023636023692360A38943F00803E6
:10574000A38123694BB9A38903F42073B3F5007FC8
:1057500003D02146304600F0E7FEA28912F0010393
:105760000CD00023A36063695B42A361236953B932
:10577000B4F90C3013F08000BAD170BD920758BF55
:105780006369A360F2E70020F7E700BF6400002030
:10579000BC910008DC9100089C91000838B5064CCB
:1057A0000023054608462360FEF796FE431C02D1FF
:1057B000236803B12B6038BD080B00202DE9F74F9B
:1057C00003690C69A3428046C0F28280013C01F16A
:1057D00014074FEA840C00F1140657F8245056F8C9
:1057E000240006EB0C03013507EB0C090193B0FB19
:1057F000F5F595B34FF0000A3846B646D34650F853
:10580000042B93B205FB03A34FEA134A9BB2ABEB05
:105810000303120CDEF800B005FB02A213FA8BF3AF
:105820004FEA124A1FFA82FBDEF80020CBEB12424D
:1058300002EB23429BB243EA024381454FEA224BEB
:105840004EF8043BDBD256F80C3033B9019B043BD5
:105850009E421A4630D3C8F81040404601F0CEF8B8
:10586000002825DB013530464FF0000C57F8042B9B
:10587000D0F800E093B2ACEB0303120C13FA8EF3F2
:10588000C2EB1E4202EB23429BB243EA0243B945FC
:105890004FEA224C40F8043BE8D256F8242006EBAD
:1058A00084032AB9043B9E421A460BD3C8F8104021
:1058B000284603B0BDE8F08F1268043B002ACAD125
:1058C000013CC5E71268043B002AEFD1013CEAE73E
:1058D0000020EEE7000000002DE9F04F57EC106BC0
:1058E00097B0456A069104460B921293DDF88080CA
:1058F000CDE900673DB9102000F056FE6062C0E9B6
:1059000001550560C560636A196851B15A684A60FB
:10591000012393408B60204600F08FFE636A0022D3
:105920001A603B1EBBBF23F00043019300230122FA
:10593000ACBFC8F80030C8F80020AF4BDDF80480D9
:1059400033EA080314D1129A42F20F731360009BDA
:1059500023B9C8F31300002800F04285219BDFF82B
:10596000ACB2002B00F044850BF1030300F03EBD08
:10597000DDE900670022002330463946FBF74CF88A
:10598000814668B1129A01231360219B002B00F01D
:1059900024859A4B219A03F1FF3B136000F028BD48
:1059A00014AA15A947EC106B204601F09EF8C8F325
:1059B0000A550490002D7CD0C7F3130343F07F5B9E
:1059C000B2464BF4401BA5F2FF35CDF84C900022B7
:1059D0008B4B50465946FAF7FFFB81A3D3E90023CE
:1059E000FAF7B2FD80A3D3E90023FAF7F7FB0646E6
:1059F00028460F46FAF73EFD7DA3D3E90023FAF7C8
:105A0000A3FD02460B4630463946FAF7E7FB064649
:105A10000F46FBF723FA0022824600233046394620
:105A2000FBF704F848B15046FAF724FD32463B46EE
:105A3000FAF7F2FF08B90AF1FF3ABAF1160F59D88E
:105A4000704901EBCA01DDE90023D1E90001FBF750
:105A50000BF8002850D00AF1FF3A00230F93149B53
:105A60005D1BB5F1010849BFC5F101030023059392
:105A70004FF0000858BF0593BAF1000F3EDB00233A
:105A8000D044CDF838A00793069B092B00F29080F4
:105A9000052BC4BF043B0693069BA3F10203CCBFB6
:105AA00000250125032B00F28F80DFE803F07D7FC6
:105AB0003171DDE914531D4405F23240202813DD15
:105AC000C0F14000009B08FA00F805F2124023FAEA
:105AD00000F048EA0000FAF7BDFC01238246A1F17C
